:020000040800F2
:100000001007002035020008F915000857120008F3
:10001000D11500082B040008D717000800000000C5
:10002000000000000000000000000000271600088B
:100030002D04000800000000FB1500082916000828
:100040004F0200084F0200084F0200084F0200084C
:100050004F020008251600082F0400083504000888
:100060003B0400084F0200084F0200084F0200083E
:100070004F0200084F0200084F0200084F0200081C
:100080004F0200084F0200084F0200080000000065
:100090000000000000000000000000004F02000807
:1000A0004F0200084F0200084F0200084F020008EC
:1000B000BD160008C91600084F0200084F020008CC
:1000C0004F0200084F0200084F0200084F020008CC
:1000D0004F0200084F0200084F0200080000000015
:1000E0004F0200084F0200084F0200080000000005
:1000F0000000000000000000000000004F020008A7
:10010000000000004F0200084F0200084F020008E4
:1001100000000000000000000000000000000000DF
:100120004F0200084F0200084F0200084F0200086B
:100130004F02000800000000000000000000000066
:100140000000000000000000000000004F02000856
:100150004F0200084F0200084F0200084F0200083B
:100160004F0200084F0200080000000000000000DD
:10017000000000000000000000000000000000007F
:10018000000000004F020008000000000000000016
:100190004F02000800F002F800F03CF80AA090E8D6
:1001A000000C82448344AAF10107DA4501D100F032
:1001B00031F8AFF2090EBAE80F0013F0010F18BFC3
:1001C000FB1A43F0010318472C1900004C190000DA
:1001D000103A24BF78C878C1FAD8520724BF30C873
:1001E00030C144BF04680C60704700000023002445
:1001F00000250026103A28BF78C1FBD8520728BF37
:1002000030C148BF0B6070471FB501F065FC1FBDD2
:1002100010B510BD00F0CFF81146FFF7F5FF01F063
:10022000A1FB00F0EDF803B4FFF7F2FF03BC00F010
:10023000F5F800000948804709480047FEE7FEE757
:10024000FEE7FEE7FEE7FEE7FEE7FEE7FEE7FEE786
:1002500004480549054A064B70470000AD160008E2
:100260009501000810010020100700201003002055
:100270001003002053EA020C00F069802DE9F04BD6
:100280004FF00006002B1FBFB3FA83F503FA05F405
:1002900024FA05F65E4012BF1643B2FA82F502FA5E
:1002A00005F4C5F120051EBF22FA05FC44EA0C0442
:1002B000203556EA044C4FEA144418BF641C4FF032
:1002C00000084FF00009904271EB030C39D300296C
:1002D00019BFB1FA81F701FA07F6B0FA80F700FA10
:1002E00007F6C7F120071EBF20FA07FC46EA0C06F6
:1002F0002037B6FBF4FCA7EB0507103F07F01F0BF8
:10030000CBF120060CFA0BFB2CFA06F644BFB346E1
:100310000026202FA4BF5E464FF0000B5BEA060CC0
:1003200008BF4FF0010B19EB0B09ABFB027C48EB4C
:100330000608C01B06FB02CC0BFB03CC71EB0C01C7
:10034000C1E70B46024641464846BDE8F08B13B56F
:100350004FF000004FF00001AFF30080BDE81C40FB
:1003600070474FF0000200B5134694469646203978
:1003700022BFA0E80C50A0E80C50B1F12001BFF45E
:10038000F7AF090728BFA0E80C5048BF0CC05DF8C4
:1003900004EB890028BF40F8042B08BF704748BF12
:1003A00020F8022B11F0804F18BF00F8012B704786
:1003B000704770477047754600F02CF8AE46050050
:1003C0006946534620F00700854618B020B5FFF770
:1003D0003FFFBDE820404FF000064FF000074FF010
:1003E00000084FF0000B21F00701AC46ACE8C00953
:1003F000ACE8C009ACE8C009ACE8C0098D4670475C
:1004000010B50446AFF300802046BDE81040FFF76A
:100410000ABF000000487047B000002001491820C2
:10042000ABBEFEE7260002007047FEE770470120E2
:1004300000F020B8022000F01DB8042000F01AB827
:1004400070B5054600F01CF94FEA000400F018F9F9
:10045000001BA842FAD370BDC10701D001F0EAB970
:10046000810701D501F0BABA400701D501F0D4BA2D
:1004700070470000044910B50A68024202D00860C3
:10048000FFF7EAFF10BD0000143C01402DE9F84FD2
:10049000DFF8B8A1002201240AF1040B03254FF074
:1004A0000F090BF1040E00BF0B6804FA02F633408B
:1004B000B34273D10F7907F00307012F01D0022F48
:1004C00016D187684FEA420805FA08FC27EA0C07AC
:1004D000D1F80CC00CFA08FC4CEA070CC0F808C0B4
:1004E0004768B7430E79C6F3001696403E43466010
:1004F0000E79F643B6070DD0C768560005FA06FC1C
:1005000027EA0C07D1F808C00CFA06FC4CEA070CE5
:10051000C0F80CC00E7906F00306022E10D1D608E2
:1005200000EB8608D8F8206057074FEAD76C09FA25
:100530000CF7BE430F6907FA0CF73743C8F8207071
:1005400006684FEA420C05FA0CF7BE430F7907F034
:10055000030707FA0CF7374307604E6816F4403F6D
:100560006DD03B4E376847F480473760366822F0DD
:10057000030706F480460096364E07EB060CDCF8BF
:10058000086897073F0F09FA07F826EA0806DFF818
:10059000C880404503D14FF000081EE04FE0DFF86F
:1005A000BC80404502D14FF0010816E0DFF8B08072
:1005B000404502D14FF002080FE0DFF8A880404527
:1005C00002D14FF0030808E0DFF89C80404502D1DB
:1005D0004FF0040801E04FF0070808FA07F848EA6E
:1005E0000608CCF80888DAF800605746D1F804C04D
:1005F0009E435FEACC3C00D51E433E60DBF80060C2
:100600005F46D1F804C09E435FEA8C3C00D51E4390
:100610003E60DEF800607746D1F804C09E435FEA92
:10062000CC2C00D51E433E60084F0C373E68D1F8F5
:1006300004C09E435FEA8C2C00D51E433E60521CD2
:10064000102AFFF431AFBDE8F88F0000003C0140F4
:1006500044380240003001400000024000040240E3
:1006600000080240000C02400010024000690840EF
:1006700000D0012070470AB1816170470904FBE78F
:10068000014880687047000004000020024881682B
:100690000278114481607047040000200B4810B5B7
:1006A000016841F400710160016841F480610160FA
:1006B000016841F480710160032000F0A9F8002076
:1006C00000F006F800F024F8002010BD003C0240C5
:1006D00070B50D4D04464FF47A712878B1FBF0F0F7
:1006E0000A490968B1FBF0F000F0CEFB48B9102CC4
:1006F00007D200222146501E00F06AF800206C60EC
:1007000070BD012070BD000004000020100000201A
:10071000124808B5016841F480410160006800F4A6
:10072000804000900D48001F016841F08051016039
:100730000068002200F0805000901146052000F073
:1007400047F8052000F02AF800221146052000F0A5
:100750003FF8BDE80840052000F020B844380240CA
:10076000002809DB00F01F020121914040098000B0
:1007700000F1E020C0F88012704700280DDB00F087
:100780001F02012191404009800000F1E020C0F8E3
:100790008011BFF34F8FBFF36F8F7047002809DBC5
:1007A00000F01F02012191404009800000F1E0208B
:1007B000C0F800117047002809DB00F01F0201217A
:1007C00091404009800000F1E020C0F8001270471D
:1007D000F0B40E4B1B680C46C3F30223C3F10705AC
:1007E000042D00D90425191D072901D2002300E09A
:1007F000DB1E012606FA05F1491E214099409E4064
:10080000761E16403143F0BC00F0E6BF0CED00E070
:10081000064900F0070208684FF6FF03184040EA57
:100820000220034A10430860704700000CED00E00E
:100830000000FA052DE9F843044600684FF001096D
:10084000C1074FF0000601D1400727D5DFF81C8112
:10085000C8F86860FFF714FF0746454D05E000BF84
:10086000FFF70EFFC01B022857D828680001F7D4F5
:1008700060688101207A41EA00703D498431086056
:10088000C8F86890FFF7FCFE074604E0FFF7F8FEA3
:10089000C01B022841D828680001F7D520788007BE
:1008A00052D533484030016841F080510160006802
:1008B000304D00F080500090286840F4807028602F
:1008C000FFF7DEFE074604E0FFF7DAFEC01B022852
:1008D00023D82868C005F7D5254D7035286810F451
:1008E000407020D0A18901F4407181421BD028685A
:1008F00020F440712048C0F8009006602960286804
:10090000C00710D0FFF7BCFE064641F2883707E06B
:10091000FFF7B6FE801BB84202D90320BDE8F8837A
:1009200028688007F4D5E1681148C1F30122083036
:10093000032A12D0016821F4F81101602868A18906
:10094000C1F30B01084328602078000703D50B4949
:10095000207CC1F8E0010020E0E70268084B22F4A7
:10096000F81219400A430260E8E70000000047421D
:100970000038024000700040400E474200104742DD
:10098000FFFCFF0F2DE9F0470E46050065D0DFF8AC
:100990001481D8F80000F7B200F00700B04207D287
:1009A00088F80070D8F8000000F00700B04254D179
:1009B00028683D4C810712D5400703D5206840F4D4
:1009C000E05020602878000703D5206840F460409C
:1009D00020602068A96820F0F00008432060287893
:1009E000C0072DD0304968680839012812D0022884
:1009F00013D0032811D00968890700292DDA21684E
:100A000021F0030101432160FFF73AFE814641F2E4
:100A1000883A0EE009688903EFE709688901ECE785
:100A2000FFF72EFEA0EB0901514502D90320BDE8D6
:100A3000F0872068696800F00C00B0EB810FEFD1FF
:100A4000D8F80010404601F00701B14207D90770FD
:100A5000006800F00700B04201D00120E7E72878E5
:100A6000400705D52068E96820F4E050084320607D
:100A70002878000706D52068296920F4604040EAFC
:100A8000C100206000F018F82168084AC1F3031182
:100A9000515CC8400649086006480068FFF718FE28
:100AA0000020C4E7003C024008380240E21A000877
:100AB0001000002008000020154810B5006810F054
:100AC0000C02144813D01449042A0FD0082A0ED15E
:100AD0000F4C241F2268236802F03F025B0207D5F7
:100AE0002068C0F38810A0FB010106E0084610BD95
:100AF0002168C1F38811A1FB00010023FFF7BAFBB5
:100B00002168C1F30141491C4900B0FBF1F010BD5F
:100B1000083802400024F40040787D012DE9F84FA8
:100B200004006ED02078DFF84C93C007A9F10405CB
:100B30004AD009F104000168C1F38101012908D0FC
:100B40000068C0F3810002280AD1D9F800004002F1
:100B500006D52868800337D560680028E1D033E0E7
:100B60006068B0F5803F10D0B0F5A02F286810D095
:100B700020F480302860286820F480202860606895
:100B8000A8B1FFF77DFD06460DE0286840F48030EF
:100B9000F4E740F480202860F7E700BFFFF770FD1E
:100BA000801B642873D828688003F7D50CE0FFF712
:100BB00067FD064605E000BFFFF762FD801B642865
:100BC000F0D828688003F7D42078DFF8AC8280075B
:100BD0004FF0000A3ED5A748001D016811F00C0F28
:100BE00008D00068C0F3810002280BD1D9F80000BA
:100BF000400207D42868800716D5E068012800D194
:100C000012E033E1E068B8B10120C8F80000FFF756
:100C100037FD064605E000BFFFF732FD801B0228C6
:100C2000C0D828688007F7D52868216920F0F80027
:100C300040EAC10028600DE0C8F800A0FFF720FDE1
:100C4000064604E0FFF71CFD801B02281FD8286819
:100C50008007F7D42078000722D5864F874861693E
:100C6000703771B101210160FFF70AFD064604E00B
:100C7000FFF706FD801B022809D838688007F7D5E2
:100C80000EE0C0F800A0FFF7FBFC064605E082E09E
:100C9000FFF7F6FC801B02287DD838688007F7D460
:100CA0002078400768D5DFF8CCB100270BF13C0B6A
:100CB000DBF80000C0000BD4DBF8001041F08051DD
:100CC000CBF80010DBF80000012700F08050009006
:100CD0006B4E3068C00510D4306840F480703060CE
:100CE000FFF7CEFC009005E0FFF7CAFC0099401A20
:100CF000022850D83068C005F6D55E4EA0686C3624
:100D000001280FD00528306810D020F00100306095
:100D1000306820F004003060A068B8B1FFF7B0FC84
:100D200000900FE0306840F00100F4E740F004006C
:100D30003060F7E7FFF7A4FC0099411A41F28830D0
:100D4000814266D830688007F4D50EE0FFF798FC42
:100D5000009007E0FFF794FC0099411A41F28830B7
:100D6000814256D830688007F4D42FB1DBF80010E8
:100D700021F08051CBF80010A069C8B33D49091D8E
:100D80000968C1F3810102294AD00228504607D0E0
:100D9000C8F8600000E03CE0FFF772FC04463BE06E
:100DA0004746C8F86000FFF76BFC064605E000BF49
:100DB000FFF766FC801B02282BD828688001F7D437
:100DC000D4E907010843A16A2E4A490802EB014110
:100DD000626A41EA8211084394F82C1040EA0161EA
:100DE000C9F8001001203866FFF74AFC044606E007
:100DF0003EE000BFFFF744FC001B022809D828682A
:100E00008001F7D534E000BFFFF73AFC001B022851
:100E100002D90320BDE8F88F28688001F4D427E0C8
:100E20000128F7D0D9F80000E26900F4800191426E
:100E30001CD1226A00F03F01914217D147F6C071E0
:100E4000626A0140B1EB821F10D1A26A4FF0FF33FA
:100E500000F4403103EB5202B1EB024F06D194F89B
:100E60002C1000F07060B0EB016F01D00120D1E7D1
:100E70000020CFE70438024000004742800E47427E
:100E8000007000400000FFFF10B5401EB0F1807FF1
:100E900001D3012010BD4FF0E02460610F216017E5
:100EA00000F09AFC0020A06107202061002010BD06
:100EB0007047704770B590F83C20012A2CD001246F
:100EC00080F83C40022280F83D2003685A689D6803
:100ED00022F070060A6832435A60104B02689A4248
:100EE0000ED0B2F1804F0BD00D4B9A4208D00D4B73
:100EF0009A4205D00C4B9A4202D00C4B9A4204D134
:100F0000496825F080031943916080F83D40002135
:100F100080F83C10084670BD022070BD0000014002
:100F20000004004000080040000C00400040014068
:100F300010B5040003D094F83D0010B107E0012083
:100F400010BD002084F83C00204600F01FF802206D
:100F500084F83D00211D206800F0BCFB012084F8CE
:100F6000460084F83E0084F83F0084F8400084F88E
:100F7000410084F8420084F8430084F8440084F877
:100F8000450084F83D00002010BD000008B5016850
:100F90001448B1F1804F14D0134A914220D1016816
:100FA00041F0020101600068002200F002000090A0
:100FB00001211D20FFF70CFC1D20BDE80840FFF7B4
:100FC000EDBB016841F0010101600068002200F002
:100FD0000100009001211C20FFF7FAFB1C20ECE728
:100FE00008BD0000403802400004004070B50446CF
:100FF00090F83C000025012817D0012684F83C60B9
:10100000022084F83D002068826822F0770222F4F2
:101010007F4282600868502838D00DDC20284FD0ED
:1010200005DC90B3102811D14AE0022070BD3028B1
:1010300046D040280AD13BE060282FD070280DD040
:10104000B0F5805F03D0B0F5005F12D0012584F8C1
:101050003D60002084F83C00284670BDCB68D1E993
:101060000121206800F082FB2068816841F077014F
:1010700009E0CB68D1E90121206800F077FB206806
:10108000816841F480418160E1E719E0CA684968FC
:10109000206800F07DFB5021206806E0CA6849689E
:1010A000206800F086FB6021206800F069FBCEE735
:1010B000CA684968206800F06BFB40212068F4E7AB
:1010C000226801461046F0E7704770B50446006894
:1010D00001694FF00005C943890715D4C168C943A8
:1010E000890711D4E91E01610120207720688069F9
:1010F0008007204602D0FFF7E7FF04E000F098F8F1
:10110000204600F096F8257720680169C943490711
:1011100017D4C168C943490713D46FF004010161B2
:10112000022020772068806910F4407F204602D09A
:10113000FFF7CAFF04E000F07BF8204600F079F8E2
:10114000257720680169C943090716D4C168C943D6
:10115000090712D46FF0080101610420207720688C
:10116000C0698007204602D0FFF7AEFF04E000F020
:101170005FF8204600F05DF8257720680169C943D3
:10118000C90617D4C168C943C90613D46FF010014A
:101190000161082020772068C06910F4407F204654
:1011A00002D0FFF791FF04E000F042F8204600F083
:1011B00040F8257720680169C943C90708D1C1688B
:1011C000C943C90704D1891E0161204600F032F8E5
:1011D00020680169C943090609D4C168C9430906E1
:1011E00005D46FF0800101612046FFF761FE2068A1
:1011F0000169C943490609D4C168C943490605D4F0
:101200006FF040010161204600F024F82068016978
:10121000C94389060BD4C168C943890607D46FF056
:10122000200101612046BDE87040FFF742BE70BD5D
:10123000704770470068B0F1804F04D0044988427D
:1012400005D100F033BC2521082000F047BB7047D2
:10125000000400407047FEE770B5284D044600F0DA
:10126000010201212846FFF706FA04F002020221DA
:101270002846FFF700FA04F0040204212846FFF78D
:10128000FAF904F0080208212846FFF7F4F904F0FF
:10129000100210212846FFF7EEF904F02002202169
:1012A0002846FFF7E8F904F0400240212846FFF7FE
:1012B000E2F904F0800280212846FFF7DCF90022E1
:1012C00029152846FFF7D7F9002269152846FFF7A8
:1012D000D2F90122160231462846FFF7CCF9002246
:1012E00031462846FFF7C7F9042C01D2022000E05E
:1012F0000120BDE87040FFF7A3B8000000000240E5
:1013000010B53820FFF7A8FF0620FFF7A5FF08203B
:10131000FFF7A2FFBDE810400C20FFF79DBF0000C3
:1013200070B5274D044600F0010201212846FFF761
:10133000A2F904F0020202212846FFF79CF904F00A
:10134000040204212846FFF796F904F00802082158
:101350002846FFF790F904F0100210212846FFF705
:101360008AF904F0200220212846FFF784F904F0CE
:10137000400240212846FFF77EF904F080028021D8
:101380002846FFF778F9012291022846FFF773F902
:10139000002269152846FFF76EF901221402214642
:1013A0002846FFF768F9002221462846FFF763F92F
:1013B00000240020FFF744F8641C112CF9DB70BDF9
:1013C0000000024070B5C020FFF746FF044D002426
:1013D000285D641CFFF7A4FF092CF9DB70BD000039
:1013E000A400002010B50120FFF736FF3820FFF7DA
:1013F00033FF5720FFF794FF6520FFF791FF6C2024
:10140000FFF78EFF6320FFF78BFF6F20FFF788FF4A
:101410006D20FFF785FF6520FFF782FFBDE81040D4
:10142000C020FFF719BF000070B586B014216846D0
:10143000FEF797FF29480025016841F0010101608E
:10144000016801F001010591016841F002010160AC
:101450000068234E00F0020040F2FF7405902A4617
:1014600021463046FFF707F90120CDE9004002246C
:1014700069463046CDE90245FFF708F803200090A1
:101480004FF40410CDE90104164D69462846FEF7D5
:10149000FDFF042000904FF44410CDE9010469469B
:1014A0002846FEF7F3FF002201210620FFF790F9FE
:1014B0000620FFF773F9002201210720FFF788F9C2
:1014C0000720FFF76BF9002201210820FFF780F9C0
:1014D0000820FFF763F906B070BD00003038024005
:1014E000000002400004024070B586B00025194C8F
:1014F000009501950295039504954FF08040059560
:1015000001C443F67F60012661C4124844F81059B3
:10151000A561FFF70DFD08B172B6FEE74FF48050EC
:10152000009069460B48FFF761FD08B172B6FEE70F
:10153000049504A907480595FFF7BCFC08B172B6ED
:10154000FEE7206806602068C16841F00101C160C3
:1015500006B070BD1400002030B587B000251B4CCC
:10156000009501950295039504951748059520600F
:1015700040F23F60C4E901054FF4FA70C4E9030585
:101580002046A561FFF7D4FC08B172B6FEE74FF420
:101590008050009069460D48FFF728FD08B172B6EB
:1015A000FEE7049504A909480595FFF783FC08B1F7
:1015B00072B6FEE72168012008602068C16841F02A
:1015C0000101C16007B030BD000400405C00002094
:1015D000FEE710B5FFF788FFFFF7BEFF1C20FFF7FF
:1015E000CCF81D20FFF7C9F8FFF78AFEFFF7FAFED7
:1015F000BDE8104000F0E2B9FEE7704700B585B0E5
:1016000014216846FEF7ADFE0820009001208DF8F9
:1016100010006846FFF70EF9002801D072B6FEE709
:1016200005B000BD70477047FFF730B810B592B0F5
:1016300030216846FEF795FE14210CA8FEF791FEB6
:1016400018480024016841F080510160006800F0F2
:10165000805011901448016821F4404141F4004148
:1016600001600068069400F4404011900220009050
:1016700001200390102004906846FFF74FFA08B14C
:1016800072B6FEE70F20CDE90C040E940F940021F2
:101690000CA81094FFF776F9002801D072B6FEE787
:1016A00012B010BD4038024000700040024801688E
:1016B00041F470010160704788ED00E00148FFF7D8
:1016C00004BD0000140000200148FFF7FEBC00002C
:1016D0005C000020F0B502681D4B1E4C9F031E4DA0
:1016E0001E4E984207D0B84205D0A04203D0A8426F
:1016F00001D0B04204D122F0700C4A6842EA0C02D8
:10170000984210D0B8420ED0A0420CD0A8420AD0C5
:10171000B04208D0124CA04205D0124CA04202D0D8
:10172000114CA04203D122F44074CA6822434C6990
:1017300022F08002224302608A68C2620A688262E2
:10174000984201D10969016301214161F0BD0000A6
:10175000000001400004004000080040000C004070
:1017600000400140004401400048014010B5846839
:1017700042EA032224F47F440A432243826010BDDC
:10178000826822F070020A4342F0070181607047CC
:1017900010B5036A046A24F001040462846924F029
:1017A000F00444EA021423F00A020A43846102624C
:1017B00010BD10B5036A23F0100303628369046A45
:1017C00023F4704343EA023224F0A00343EA0111F8
:1017D0008261016210BDFEE70907090E002804DBE3
:1017E00000F1E02080F80014704700F00F0000F1D5
:1017F000E02080F8141D704710B5C020FFF72CFDC5
:101800002020FFF78DFD2020FFF78AFD2020FFF725
:1018100087FD2020FFF784FD2020FFF781FD202099
:10182000FFF77EFD2020FFF77BFDBDE81040202064
:10183000FFF776BD10B51D20FEF79FFF0648016833
:10184000002908D000210160FFF7BCFDBDE8104071
:101850001C20FEF7A3BF10BD000000200A281AD2EA
:10186000DFE800F00507090B0D0F111315173020E5
:101870007047312070473220704733207047342042
:101880007047352070473620704737207047382022
:101890007047392070472620704730380A281AD2FE
:1018A000DFE800F00507090B0D0F111315170020D5
:1018B00070470120704702207047032070470420C2
:1018C00070470520704706207047072070470820A2
:1018D0007047092070474FF0FF3070472DE9F04105
:1018E00004460D461020FFF7B7FC022C09D0052C4A
:1018F00007D01B4E305DFFF7D0FF0544032C06D008
:1019000007E02946601EFFF7E9FF3A2023E0062D95
:1019100013D00A2D1BDB0A2795FBF7F1601EFFF79A
:10192000DDFF95FBF7F007FB10521046FFF796FF1F
:1019300030551046FFF792FF0DE001210220FFF71E
:10194000CDFF00221046FFF789FFF070F1E728462F
:10195000FFF784FF3055BDE8F041FFF7E1BC000020
:10196000A4000020FEF79AFEFFF760FEFFF746FE98
:10197000FFF75AFDFFF72DFEFEE710B5C020FFF779
:101980006BFC5420FFF7CCFC7520FFF7C9FC7220DC
:10199000FFF7C6FC6E20FFF7C3FC2020FFF7C0FC5A
:1019A0004F20FFF7BDFC6620FFF7BAFC6620FFF76B
:1019B000B7FCBDE810402020FFF7B2BC064830213C
:1019C0003A22017041708270C1700171427181715F
:1019D000C171017270470000A400002010B51C20E6
:1019E000FEF7CBFE03480168002901D10221016006
:1019F00010BD00000000002010B51C20FEF7BDFE49
:101A000004496FF001000860FFF7D8FFBDE81040FF
:101A1000FFF7D8BC000000202DE9F0411C20FEF7A4
:101A2000ACFE0820FEF7C7FE164F04213846FEF72D
:101A30001DFE08B1012600E00026FEF721FE054646
:101A400011480478C8340DE02EB104213846FEF761
:101A50000DFE38B90EE02EB904213846FEF706FE19
:101A6000012807D0FEF70CFE401BA042ECD300F08B
:101A70000DF801E0FFF7C0FFBDE8F0410820FEF7D8
:101A80006FBE0000000402400400002010B5FFF704
:101A900074FFFFF793FF044901200860BDE8104080
:101AA0001D20FEF77BBE00000000002010B51C20AA
:101AB000FEF763FE074C2068012806D0401C03D1C6
:101AC000FFF75BFF0120206010BDFFF795FE4FF090
:101AD000FF30F8E7000000204FF04070E1EE100A00
:101AE0007047000000000000000001020304060728
:101AF00008090000141B000800000020140000006A
:101B0000D0010008281B000814000020FC0600007B
:101B1000EC010008FEFFFFFF0100000010000000C4
:081B2000000000000024F400A5
:040000050800019559
:00000001FF
